:100000000C942A000C943F000C943F000C943F0089
:100010000C943F000C943F000C943F000C943F0064
:100020000C943F000C943F000C943F000C943F0054
:100030000C943F000C943F000C943F000C943F0044
:100040000C943F000C943F000C943F000C943F0034
:100050000C943F0011241FBECFE5D8E0DEBFCDBF1A
:1000600010E0A0E6B0E0E0EBF6E002C005900D92F3
:10007000A63CB107D9F70E944A020C9456030C948F
:100080000000982F9770869586958695813021F18E
:1000900030F08230F1F1833009F458C008956130B6
:1000A00069F44BB321E030E0B90102C0660F771F5D
:1000B0009A95E2F7CB01842B8BBB08954BB321E0DB
:1000C00030E0B90102C0660F771F9A95E2F7CB01C5
:1000D000809584238BBB0895613069F448B321E097
:1000E00030E0B90102C0660F771F9A95E2F7CB01A5
:1000F000842B88BB089548B321E030E0B90102C0E9
:10010000660F771F9A95E2F7CB018095842388BB11
:100110000895613069F445B321E030E0B90102C0CF
:10012000660F771F9A95E2F7CB01842B85BB089564
:1001300045B321E030E0B90102C0660F771F9A9500
:10014000E2F7CB018095842385BB0895613069F483
:1001500042B321E030E0B90102C0660F771F9A95E3
:10016000E2F7CB01842B82BB089542B321E030E05B
:10017000B90102C0660F771F9A95E2F7CB0180950F
:10018000842382BB0895813041F028F0823039F019
:10019000833039F008956BBB089568BB089565BB43
:1001A000089562BB0895813041F028F0823039F023
:1001B000833039F008C08BB3089588B3089585B3B0
:1001C000089582B308958FEF0895E0E6F0E080E0AF
:1001D00041E050E0282F2770982F96959695969598
:1001E000913009F130F09230C1F1933009F44FC0F1
:1001F00067C09081913059F49AB3BA0102C0660F7A
:10020000771F2A95E2F79B01292B2ABB59C03AB3E5
:10021000BA0102C0660F771F2A95E2F7962F9095D4
:1002200093239ABB4DC09081913059F497B3BA0192
:1002300002C0660F771F2A95E2F79B01292B27BB87
:100240003FC037B3BA0102C0660F771F2A95E2F7A5
:10025000962F9095932397BB33C09081913059F49A
:1002600094B3BA0102C0660F771F2A95E2F79B018B
:10027000292B24BB25C034B3BA0102C0660F771FF7
:100280002A95E2F7962F9095932394BB19C09081FD
:10029000913059F491B3BA0102C0660F771F2A95C5
:1002A000E2F79B01292B21BB0BC031B3BA0102C07D
:1002B000660F771F2A95E2F7962F9095932391BBAF
:1002C0008F5F3296803209F085CF0895CF93C82F83
:1002D00080E00E94D3008F709C2F907F682F692B45
:1002E00080E00E94C30060E089E00E94410060E07D
:1002F0008BE00E9441008FE891E00197F1F700C088
:10030000000061E08BE00E9441008FE19EE40197D4
:10031000F1F700C0000080E00E94D3008F7090E1F0
:10032000C99F90011124682F622B80E00E94C300B6
:1003300060E089E00E94410060E08BE00E944100A3
:100340008FE891E00197F1F700C0000061E08BE0D9
:100350000E9441008FE39FE10197F1F700C0000088
:10036000CF91089560E08AE00E94410061E08BE057
:100370000E9441002FEF89EF90E021508040904093
:10038000E1F700C0000083E30E9466018FE891E07E
:100390000197F1F700C0000082E30E94660188E245
:1003A0000E94660186E00E9466018CE00E94660160
:1003B00081E00E9466018FE39FE10197F1F700C0A1
:1003C00000000895CF93C82F80E00E94D3008F7063
:1003D0009C2F907F682F692B80E00E94C30061E012
:1003E00089E00E94410060E08BE00E9441002FEF15
:1003F00081EE94E0215080409040E1F700C0000081
:1004000061E08BE00E9441008FE19EE40197F1F7EB
:1004100000C0000080E00E94D3006C2F6295607FD6
:1004200080E00E94C30061E089E00E94410060E03A
:100430008BE00E9441009FEF21EE84E0915020402C
:100440008040E1F700C0000061E08BE00E944100C5
:100450008FE39FE10197F1F700C00000CF9108956D
:100460000F931F93CF93FC018081882359F08F0154
:10047000C0E00E94E201CF5FF801EC0FF11D808126
:100480008111F7CFCF911F910F91089581E00E94C4
:1004900066010895CF93DF93CDB7DEB7C255D1097A
:1004A0000FB6F894DEBF0FBECDBF0E94E5000E94DC
:1004B000B2010E94150381E089831A82CE01019660
:1004C0000E94FC02C4982FEF89E698E121508040F9
:1004D0009040E1F700C000000E941D03823381F1CB
:1004E00018F4813341F0F8CF833309F453C08433D7
:1004F00009F473C0F1CF0E94460281E00E940E030E
:100500002FEF81EE94E0215080409040E1F700C051
:1005100000000E94460280EA90E00E9430020E94A1
:1005200013034AE0BE016D5F7F4F90E00E942103FC
:1005300080EC0E946601CE0103960E943002CCCF6F
:100540000E94460282E00E940E032FEF81EE94E0AB
:10055000215080409040E1F700C0000085EA90E023
:100560000E9430020E9413034AE0BE01695E7F4F81
:1005700090E00E94210380EC0E94660181EB90E0F4
:100580000E94300287EC0E946601CE0147960E94CD
:100590003002A2CF0E94460283E00E940E032FEF9A
:1005A00081EE94E0215080409040E1F700C00000CF
:1005B00088EB90E00E9430020E9413034AE0BE01E3
:1005C0006B5C7F4F90E00E94210380EC0E946601EB
:1005D000CE01C5960E9430027FCF0E94460284E081
:1005E0000E940E032FEF81EE94E021508040904056
:1005F000E1F700C0000070CFFC018081882351F03A
:10060000813059F4C49A87B3806B87BBBE986C9ACB
:100610006E9A0895BD98BE9A6E9A08958FB9779B89
:10062000FECF8FB108958FB1089588E18AB986E829
:1006300080BD87E689B910BC08955F9BFECF8CB161
:100640000895BB274A3031F4992322F4BDE29095F6
:1006500081959F4F0C942D03BB27FB015527AA279B
:10066000880F991FAA1FA41710F0A41B839550513F
:10067000B9F7A05DAA3308F0A95DA193009779F7B7
:10068000B111B1931192CB010C944603DC01FC0132
:10069000672F71917723E1F7329704C07C916D93B6
:1006A00070836291AE17BF07C8F30895F894FFCF27
:1006B0000000000000000000010101010101010132
:1006C0000000010101010101000000000000000024
:1006D0000000000000000000000000000000010019
:1006E000000000000000000000000000000000000A
:1006F00074656D70004463204D6F746F72206F6E6F
:100700000073706565643A004463204D6F746F72C6
:06071000206F6666000088
:00000001FF
