:100000000C942A000C943F000C943F000C943F0089
:100010000C943F000C943F000C943F000C943F0064
:100020000C943F000C943F000C943F000C943F0054
:100030000C943F000C943F000C943F000C943F0044
:100040000C943F000C943F000C943F000C943F0034
:100050000C943F0011241FBECFE5D8E0DEBFCDBF1A
:1000600010E0A0E6B0E0E2E8F6E002C005900D92F4
:10007000A43CB107D9F70E945E020C943F030C9494
:10008000000087B1806C87B986B1876886B908950A
:1000900097B1907E8F71892B87B9369A349BFECFAA
:1000A00084B125B190E0922B0895982F9770869592
:1000B00086958695813021F130F08230F1F18330E0
:1000C00009F458C00895613069F44BB321E030E081
:1000D000B90102C0660F771F9A95E2F7CB01842B16
:1000E0008BBB08954BB321E030E0B90102C0660F2D
:1000F000771F9A95E2F7CB01809584238BBB0895F7
:10010000613069F448B321E030E0B90102C0660F04
:10011000771F9A95E2F7CB01842B88BB089548B3EB
:1001200021E030E0B90102C0660F771F9A95E2F72F
:10013000CB018095842388BB0895613069F445B371
:1001400021E030E0B90102C0660F771F9A95E2F70F
:10015000CB01842B85BB089545B321E030E0B90184
:1001600002C0660F771F9A95E2F7CB018095842332
:1001700085BB0895613069F442B321E030E0B901F4
:1001800002C0660F771F9A95E2F7CB01842B82BBE2
:10019000089542B321E030E0B90102C0660F771F35
:1001A0009A95E2F7CB018095842382BB0895813034
:1001B00041F028F0823039F0833039F008956BBB7C
:1001C000089568BB089565BB089562BB08958130AA
:1001D00041F028F0823039F0833039F008C08BB319
:1001E000089588B3089585B3089582B308958FEF75
:1001F0000895E0E6F0E080E041E050E0282F27702D
:10020000982F969596959695913009F130F0923009
:10021000C1F1933009F44FC067C09081913059F417
:100220009AB3BA0102C0660F771F2A95E2F79B01C5
:10023000292B2ABB59C03AB3BA0102C0660F771FF7
:100240002A95E2F7962F909593239ABB4DC0908103
:10025000913059F497B3BA0102C0660F771F2A95FF
:10026000E2F79B01292B27BB3FC037B3BA0102C07D
:10027000660F771F2A95E2F7962F9095932397BBE9
:1002800033C09081913059F494B3BA0102C0660F23
:10029000771F2A95E2F79B01292B24BB25C034B395
:1002A000BA0102C0660F771F2A95E2F7962F909544
:1002B000932394BB19C09081913059F491B3BA0142
:1002C00002C0660F771F2A95E2F79B01292B21BBFD
:1002D0000BC031B3BA0102C0660F771F2A95E2F74F
:1002E000962F9095932391BB8F5F3296803209F0C1
:1002F00085CF0895CF93C82F80E00E94E7008F70CC
:100300009C2F907F682F692B80E00E94D70060E0CF
:1003100089E00E94550060E08BE00E9455008FE864
:1003200091E00197F1F700C0000061E08BE00E94CE
:1003300055008FE19EE40197F1F700C0000080E0D6
:100340000E94E7008F7090E1C99F90011124682FEF
:10035000622B80E00E94D70060E089E00E94550097
:1003600060E08BE00E9455008FE891E00197F1F783
:1003700000C0000061E08BE00E9455008FE39FE128
:100380000197F1F700C00000CF91089560E08AE086
:100390000E94550061E08BE00E9455002FEF89EF2D
:1003A00090E0215080409040E1F700C0000083E3DE
:1003B0000E947A018FE891E00197F1F700C00000F8
:1003C00082E30E947A0188E20E947A0186E00E941C
:1003D0007A018CE00E947A0181E00E947A018FE329
:1003E0009FE10197F1F700C000000895CF93C82F57
:1003F00080E00E94E7008F709C2F907F682F692B10
:1004000080E00E94D70061E089E00E94550060E032
:100410008BE00E9455002FEF81EE94E02150804048
:100420009040E1F700C0000061E08BE00E945500C1
:100430008FE19EE40197F1F700C0000080E00E9488
:10044000E7006C2F6295607F80E00E94D70061E03A
:1004500089E00E94550060E08BE00E9455009FEF0C
:1004600021EE84E0915020408040E1F700C0000080
:1004700061E08BE00E9455008FE39FE10197F1F767
:1004800000C00000CF9108950F931F93CF93FC01FC
:100490008081882359F08F01C0E00E94F601CF5F70
:1004A000F801EC0FF11D80818111F7CFCF911F91E1
:1004B0000F91089581E00E947A010895CF93DF9310
:1004C000CDB7DEB7C055D1090FB6F894DEBF0FBE69
:1004D000CDBF8AEF0E94D7020E94F9000E94C60198
:1004E0000E9441000E94E50280E00E94F1020E9409
:1004F0000803823021F118F4813041F0F8CF8330C5
:1005000009F43FC0843009F44FC0F1CF0E945A0271
:1005100081E00E9448008C01169507951695079575
:100520004AE0BE016F5F7F4FC8010E940A03CE01FF
:1005300001960E944402802F0E940303D8CF0E949C
:100540005A0280EA90E00E944402AD9AAE984AE0D6
:10055000BE016D5C7F4F8AEF90E00E940A0380EC41
:100560000E947A0189EA90E00E94440286EC0E948F
:100570007A01CE01C3960E9444028AEF0E940303CF
:10058000B6CF0E945A028FEA90E00E944402AD98D2
:10059000AE9880EC0E947A0189EB90E00E944402C0
:1005A00080E00E940303A3CF0E945A02A0CF94B31D
:1005B000906694BB8D9A9FB591689FBD9EB59B60D8
:1005C0009EBD90E09BBD8ABD08958D9A8FB58268CF
:1005D0008FBD8EB58B618EBD87E893E197BD86BDDB
:1005E0000895882359F0813069F4C49A87B3806BE9
:1005F00087BBBE988DB180658DB90895BD98BE9AB0
:10060000C49A6E9A08958FB9779BFECF8FB10895E3
:100610008FB10895BB274A3031F4992322F4BDE20B
:10062000909581959F4F0C941603BB27FB0155278E
:10063000AA27880F991FAA1FA41710F0A41B83953F
:100640005051B9F7A05DAA3308F0A95DA1930097B6
:1006500079F7B111B1931192CB010C942F03DC0106
:10066000FC01672F71917723E1F7329704C07C91E9
:100670006D9370836291AE17BF07C8F30895F89425
:02068000FFCFAA
:100682000000000000000000010101010101010160
:100692000000010101010101000000000000000052
:1006A2000000000000000000000001000100010045
:1006B2000000000000000000010001000000000036
:1006C2006D6F746F72206F6E007370656564006D7C
:1006D2006F746F72206F666600737065656420695F
:0406E2007320300051
:00000001FF
